S01A000071756164636F707465725F636F6E74726F6C2E7372656372
S11300000C9409010C9431010C9431010C94A90B4A
S11300100C94B30B0C94BD0B0C9431010C94310172
S11300200C9431010C9431010C9431010C94310184
S11300300C9431010C9478050C9431010C94310129
S11300400C9431010C9431010C9425100C94601023
S11300500C9431010C9431010C9431010C94310154
S11300600C9431010C943101084AD73B3BCE016E0C
S113007084BCBFFDC12F3D6C74319ABD56833DDAFB
S11300803D00C77F11BED9E4BB4C3E916BAAAABE0A
S1130090000000803F07634236B79BD8A71A39682F
S11300A05618AEBAAB558C1D3CB7CC5763BD6DED3D
S11300B0FD753EF6177231BF000000803F004D50C1
S11300C055204E4F4B004D5055204F4B00496E6903
S11300D07469616C697A696E672E2E2E00576169A6
S11300E07420746865206269747320616E6420737F
S11300F0656E6420736F6D657468696E67206167EF
S113010061696E2E2E2E0A20616D6F737472617395
S11301103D5B0000407A10F35A00A0724E180900AB
S113012010A5D4E80000E87648170000E40B540258
S11301300000CA9A3B000000E1F505000080969893
S113014000000040420F000000A0860100000010E3
S11301502700000000E80300000000640000000025
S1130160000A00000000000100000000002C76D806
S113017088DC674F0823DFC1DFAE59E1B1B796E5EC
S1130180E3E453C63AE651997696E8E6C28426EB50
S1130190898C9B62ED407C6FFCEFBC9C9F40F2BA63
S11301A0A56FA5F490055A2AF75C936B6CF9676DFB
S11301B0C11BFCE0E40D47FEF520E6B500D0ED9050
S11301C02E0300943577050080841E080000204E1D
S11301D00A000000C80C333333330F986E128311B6
S11301E041EF8D2114893BE65516CFFEE6DB18D18D
S11301F0844B381BF77C1D901DA4BBE4242032845F
S1130200725E228100C9F124ECA1E53D2700C70BF1
S1130210D41111241FBECFEFD8E0DEBFCDBF12E052
S1130220A0E0B1E0E8E9F2E302C005900D92A63443
S1130230B107D9F723E0A6E4B2E001C01D92A139C9
S1130240B207E1F712E0C2E1D2E004C02297FE0156
S11302500E94BF16CE30D107C9F70E94240C0C941B
S11302604A190C9400001092B90088E48093B800F5
S1130270089594EA9093BC004FEF50E060E070E082
S1130280ECEBF0E09081992334F04150510961097D
S11302907109C0F704C0452B462B472B41F19091BF
S11302A0B900987F983011F0903119F58093BB0014
S11302B084E88093BC008FEF90E0A0E0B0E0ECEB2A
S11302C0F0E0208122232CF00197A109B109C8F79D
S11302D004C0892B8A2B8B2B71F09091B900987FE5
S11302E0983159F081E0903449F480E0089581E038
S11302F0089581E0089581E0089580E0089584E9F7
S11303008093BC0080E090E0ECEBF0E0208124FFDF
S113031005C00196811521E09207C1F708958093E5
S1130320BB0084E88093BC008FEF90E0A0E0B0E0D5
S1130330ECEBF0E0208122232CF00197A109B10914
S1130340C8F704C0892B8A2B8B2B41F09091B900FC
S1130350987F81E0983219F480E0089581E008954F
S113036084EC8093BC008FEF90E0A0E0B0E0ECEB75
S1130370F0E0208122232CF00197A109B109C8F7EC
S113038004C0892B8A2B8B2B19F08091BB00089514
S113039080E0089584E88093BC008FEF90E0A0E0B3
S11303A0B0E0ECEBF0E0208122232CF00197A109CE
S11303B0B109C8F704C0892B8A2B8B2B19F08091C3
S11303C0BB00089580E00895DF92EF92FF920F93AF
S11303D01F93CF93DF93182FD62ED42FC52F6623C8
S11303E051F180ED0E943901812F0E948F0185E334
S11303F08A95F1F7000081ED0E9439010D2F1C2F21
S1130400C0E0D0E0ED2CF12CE1E0EE1AF108CE15BD
S1130410DF0529F40E94CA01F801808304C00E9408
S1130420B001F801808321960F5F1F4FCD1578F33B
S11304300E947F0101C0D12C8D2DDF91CF911F919E
S11304400F91FF90EF90DF900895AB0161E00E945F
S1130450E4010895FF920F931F93CF93DF93C82F66
S1130460062FF42E152F662389F080ED0E943901A2
S11304708C2F0E948F01CF2DD12F10E089910E94E3
S11304808F011F5F1013FACF0E947F01DF91CF917C
S11304901F910F91FF900895CF93DF931F92CDB7D3
S11304A0DEB76983AE014F5F5F4F61E00E942A02AD
S11304B00F90DF91CF910895EF92FF920F931F93C6
S11304C0CF93DF931F92CDB7DEB7E62EF42E8901CA
S11304D0442341F1BE016F5F7F4F0E9425028823B0
S11304E011F16E2D70E06F1971096F5F7F4F21E07C
S11304F030E002C0220F331FFA94E2F72150310991
S1130500062E02C0220F331F0A94E2F79981292391
S113051030E0A90102C0559547956A95E2F7F801C4
S1130520408301C080E00F90DF91CF911F910F9124
S1130530FF90EF900895EF92FF920F931F93CF9344
S1130540DF931F92CDB7DEB7182FE62EF42E022FBD
S1130550442391F11982BE016F5F7F4F0E942502EF
S1130560882351F16E2D70E06F1971096F5F7F4F11
S1130570E1E0F0E0AF0102C0440F551FFA94E2F746
S113058041505109062E02C0440F551F0A94E2F748
S1130590202F30E0C90102C0880F991F6A95E2F745
S11305A0BC01942F9095898189234623682F642B5D
S11305B06983812F0E944C020F90DF91CF911F918C
S11305C00F91FF90EF900895FF920F931F93CF9395
S11305D0DF931F92CDB7DEB7182F062FF42EBE017E
S11305E06F5F7F4F0E942502FF2059F021E030E029
S11305F0B90102C0660F771F0A95E2F78981682B5B
S11306000BC021E030E0B90102C0660F771F0A95E4
S1130610E2F76095898168236983812F0E944C02E7
S11306200F90DF91CF911F910F91FF90089540E0BB
S113063066E08BE60E94E40208952FE733E046E08B
S113064066E085E70E945C0290917F0381E0943329
S113065009F080E008950E94330125E32A95F1F71B
S113066000008FEF91EE24E0815090402040E1F7AC
S113067000C000000E9417038FE39CE90197F1F783
S113068000C0000021E043E062E08BE60E949B0290
S113069023E043E062E08AE10E949B0264E089E196
S11306A00E944C0221E042E064E08BE10E949B0244
S11306B020E042E064E08CE10E949B0208958F9266
S11306C09F92AF92BF92CF92DF92EF92FF920F93DD
S11306D01F93CF93DF934C015B016A01E9014FE75C
S11306E053E06EE08BE30E94E40120917F0380914C
S11306F0800390E0922BF401918380832091810305
S11307008091820390E0922BF50191838083209164
S113071083038091840390E0922BF601918380837C
S1130720209187038091880390E0922B998388839A
S11307302091890380918A0390E0922BF8019183A0
S1130740808320918B0380918C0390E0922BF7019E
S113075091838083DF91CF911F910F91FF90EF9050
S1130760DF90CF90BF90AF909F908F90089520918D
S113077064002F7D2093640021E024BD24B520680B
S113078024BD24B5206224BD662331F024B5206441
S113079024BD24B5206124BD8034910591F034F446
S11307A081309105C1F0089779F018C0811521E0D6
S11307B0920771F08115944089F485B5846085BDF4
S11307C00AC085B5816085BD85B5826085BD0AC0D6
S11307D085B58460FBCF85B58160F8CF88E090E073
S11307E00E94B70378940895209164002F7B20938E
S11307F0640021E02093B0002091B0002068209391
S1130800B0002091B00020622093B000662351F024
S11308102091B00020642093B0002091B0002061AA
S11308202093B0008034910501F14CF4813091059E
S113083099F0089701F58091B100826019C0811583
S113084021E0920769F081159440A9F48091B100E8
S113085081608093B10004C08091B100816008C0C0
S11308608091B10082608093B1008091B100846076
S11308708093B10004C088E090E00E94F40378946F
S113088008951F93CF93DF93EC01162F519A559A35
S1130890569A539A239A5D9A5E9A5B9A5B9A0E943F
S11308A0B703612FCE01DF91CF911F910C94F40314
S11308B08F929F92AF92BF92CF92DF92EF92FF926C
S11308C0CF93DF934B015C019B01AC0160E070E0CE
S11308D080E897E40E94F20C9B01AC0160E074E2B2
S11308E084E79BE40E94F20C6B017C0120E030E081
S11308F0A9010E94930E18160CF0CBC020E030E042
S113090040E85FE3C701B6010E94EE0C18161CF024
S113091081E090E034C020E030E040E051E4C701E1
S1130920B6010E94EE0C18161CF088E090E027C077
S113093020E030E040E852E4C701B6010E94EE0C2A
S113094018161CF080E490E01AC020E030E040E883
S113095053E4C701B6010E94EE0C18161CF080E0A7
S113096091E00DC020E030E040E854E4C701B60156
S11309700E94EE0C18160CF48CC080E094E0909366
S1130980C7028093C602C091C602D091C7029E01DD
S1130990442737FD4095542F60E074E284EF90E0E3
S11309A00E948A162093CC023093CD024093CE024B
S11309B05093CF02CA01B9010E94BE0D6B017C01A4
S11309C09B01AC0160E070E080E897E40E94F20CC7
S11309D06093D0027093D1028093D2029093D30299
S11309E0A7019601C501B4010E94680F0E948B0DF6
S11309F06093C8027093C9028093CA029093CB0299
S1130A00C12CD12C7601E394C61AD70AE80AF90A54
S1130A10C092C202D092C302E092C402F092C50214
S1130A20C034D10521F154F4C130D10599F028978F
S1130A3091F582E090E0A0E0B0E022C0C11581E031
S1130A40D807D1F0C115D44031F585E090E0A0E09D
S1130A50B0E016C081E090E0A0E0B0E08093BE0278
S1130A609093BF02A093C002B093C10215C083E06B
S1130A7090E0A0E0B0E004C084E090E0A0E0B0E04A
S1130A808093BE029093BF02A093C002B093C102B0
S1130A9002C080E001C081E0DF91CF91FF90EF9030
S1130AA0DF90CF90BF90AF909F908F900895CF9399
S1130AB0DF9310928000C1E8D0E018820E945804AD
S1130AC08093D4028091C2029091C30290938500D6
S1130AD08093840088819091BE02892B8883EFE6FD
S1130AE0F0E08081816080837894DF91CF910895D4
S1130AF01F920F920FB60F9211242F933F934F938F
S1130B005F936F937F938F939F93AF93BF93EF9371
S1130B10FF93E091BC02F091BD020995FF91EF9122
S1130B20BF91AF919F918F917F916F915F914F9101
S1130B303F912F910F900FBE0F901F9018954F92D9
S1130B405F926F927F928F929F92AF92BF92CF9259
S1130B50DF92EF92FF9229013A018090B8029090BF
S1130B60B902A090BA02B090BB029B01AC01C501CE
S1130B70B4010E94270C6B017C012091A8023091E2
S1130B80A9024091AA025091AB02C501B4010E948E
S1130B90EE0C882381F0C092B002D092B102E092B0
S1130BA0B202F092B3028092A8029092A902A0929B
S1130BB0AA02B092AB0220E030E0A9016091B00239
S1130BC07091B1028091B2029091B3020E94EE0C36
S1130BD0811108C0C092B002D092B102E092B20278
S1130BE0F092B30220E030E0A901C701B6010E94EF
S1130BF0930E18164CF4A701960160E070E080E4AF
S1130C009FE30E94270C08C020E030E040E45FE34B
S1130C10C701B6010E94280C20E030E040EA51E40C
S1130C200E94680F0E945F0D20E030E040E85FE31F
S1130C300E94280C9B01AC0160E070E080E89FE317
S1130C400E94F20C9B01AC0160E070E080E89FE33D
S1130C500E94270C2AE939E949ED50E40E94680F03
S1130C60A30192010E94680F2B013C01609398023A
S1130C707093990280939A0290939B022AE037ED35
S1130C8043E25CE3C701B6010E94680F20E030E054
S1130C9040EA50E40E94680F2091A0023091A10222
S1130CA04091A2025091A3020E94280C4B015C01C6
S1130CB06093A0027093A1028093A2029093A30276
S1130CC020E030E040EB51E4C701B6010E94680F18
S1130CD0A30192010E94270CA50194010E94280CF3
S1130CE060939C0270939D0280939E0290939F0256
S1130CF00E948B0DCB01FF90EF90DF90CF90BF90BF
S1130D00AF909F908F907F906F905F904F900895D9
S1130D104F925F926F927F928F929F92AF92BF9207
S1130D20CF92DF92EF92FF9229013A018090B402B0
S1130D309090B502A090B602B090B7029B01AC01AE
S1130D40C501B4010E94270C6B017C012091A4020F
S1130D503091A5024091A6025091A702C501B401A9
S1130D600E94EE0C882381F0C092AC02D092AD02B6
S1130D70E092AE02F092AF028092A4029092A50299
S1130D80A092A602B092A70220E030E0A9016091EF
S1130D90AC027091AD028091AE029091AF020E94BC
S1130DA0EE0C811108C0C092B002D092B102E09260
S1130DB0B202F092B30220E030E0A901C701B6010B
S1130DC00E94930E18164CF4A701960160E070E09F
S1130DD080E49FE30E94270C08C020E030E040E458
S1130DE05FE3C701B6010E94280C20E030E040EA2E
S1130DF051E40E94680F0E945F0D20E030E040E85B
S1130E005FE30E94280C9B01AC0160E070E080E885
S1130E109FE30E94F20C9B01AC0160E070E080E86B
S1130E209FE30E94270C2AE939E949ED50E40E9426
S1130E30680FA30192010E94680F4B015C0160934B
S1130E4098027093990280939A0290939B0220E0F7
S1130E5030E040EB51E4C701B6010E94680FA501E0
S1130E6094010E94270C60939C0270939D028093CE
S1130E709E0290939F020E948B0DCB01FF90EF90F6
S1130E80DF90CF90BF90AF909F908F907F906F90A6
S1130E905F904F9008958F929F92AF92BF92CF929E
S1130EA0DF92EF92FF92CF93DF93609100017091F4
S1130EB00101882777FD8095982F0E94BE0D6B0154
S1130EC07C0180908E0290908F02A0909002B0904E
S1130ED09102A50194010E94280C0E948B0DEB0144
S1130EE07093950260939402A5019401C701B60121
S1130EF00E94270C0E948B0D9B01709393026093B8
S1130F009202CF37D1051CF48FE790E006C0CF3FA3
S1130F10D10539F034F08FEF90E0909395028093EF
S1130F2094022F3731051CF48FE790E006C02F3F61
S1130F30310539F034F08FEF90E090939302809371
S1130F409202DF91CF91FF90EF90DF90CF90BF900E
S1130F50AF909F908F900895EF92FF920F931F93FD
S1130F60CF93DF93CDB7DEB762970FB6F894DEBFA9
S1130F700FBECDBF20914E0230914F0240915002DE
S1130F805091510260915202709153028091540227
S1130F90909155020E949F05BC01882777FD80959A
S1130FA0982F0E94BE0D60938E0270938F028093DF
S1130FB09002909391020E944B0732E9E32E32E0B3
S1130FC0F32EF701808187BD04E912E0F8018081E6
S1130FD088BD2091460230914702409148025091C9
S1130FE0490260914A0270914B0280914C029091A7
S1130FF04D020E948806BC01882777FD8095982FB2
S11310000E94BE0D60938E0270938F0280939002B3
S1131010909391020E944B07F70180818093B30063
S1131020F80180818093B40040914A0250914B02B0
S113103060914C0270914D0222E0CE0101960E9413
S1131040E1134091B4025091B5026091B6027091DF
S1131050B70222E0CE010D960E94E113BE01635F48
S11310607F4FCE0107960E94281467E771E0CE01F6
S113107007960E947513BE016F5F7F4F0E94911304
S1131080BC018DE593E00E94BD12CE0107960E943B
S11310903814CE010D960E943214CE0101960E949E
S11310A0321462960FB6F894DEBF0FBECDBFDF9147
S11310B0CF911F910F91FF90EF9008954F925F92FF
S11310C06F927F928F929F92AF92BF92CF92DF9254
S11310D0EF92FF92CF93DF93CDB7DEB72C970FB685
S11310E0F894DEBF0FBECDBF60915A0270915B02CF
S11310F0719561957109882777FD8095982F0E94D5
S1131100BE0D20917202309173024091740250918D
S113111075020E94270C20E030E04AEF53E40E945D
S1131120680F23E333E345EE59E40E94F20C698728
S11311307A878B879C8760934602709347028093DB
S1131140480290934902609158027091590288278D
S113115077FD8095982F0E94BE0D20916E023091EC
S11311606F0240917002509171020E94270C20E09E
S113117030E04AEF53E40E94680F23E333E345EE83
S113118059E40E94F20C2B013C0160934E027093CF
S11311904F028093500290935102609160027091CB
S11311A06102882777FD8095982F0E94BE0D2091BB
S11311B07E0230917F0240918002509181020E9410
S11311C0270C905823EC35EF4CE151E40E94680F52
S11311D020E030E040E858E30E94680F4B015C01D6
S11311E060938202709383028093840290938502B9
S11311F060915E0270915F02882777FD8095982F39
S11312000E94BE0D20917A0230917B0240917C02B3
S113121050917D020E94270C905823EC35EF4CE14D
S113122051E40E94680F20E030E040E858E30E9457
S1131230680F6B017C0160938A0270938B02809328
S11312408C0290938D0260915C0270915D028827FC
S113125077FD8095982F0E94BE0D209176023091E3
S1131260770240917802509179020E94270C23EC76
S113127035EF4CE151E40E94680F20E030E040E893
S113128058E30E94680F69837A838B839C836093FD
S113129086027093870280938802909389029B014F
S11312A0AC01C701B6010E94A00E9B01AC01C501AF
S11312B0B4010E949B0C6D837E838F839887609317
S11312C066027093670280936802909369022AE031
S11312D037ED43E25CE3C301B2010E94680F209141
S11312E052023091530240915402509155020E948F
S11312F0280C26E636E646E65FE30E94680F2B01DB
S11313003C0120ED3CEC4CEC5DE36D817E818F81F2
S113131098850E94680F9B01AC01C301B2010E9431
S1131320280C60935202709353028093540290935A
S1131330550229813A814B815C81C501B4010E9427
S1131340A00E9B01AC01C701B6010E949B0C6B016E
S11313507C016093620270936302809364029093B1
S113136065022AE037ED43E25CE369857A858B8583
S11313709C850E94680F20914A0230914B02409153
S11313804C0250914D020E94280C26E636E646E6B1
S11313905FE30E94680F4B015C0120ED3CEC4CECD8
S11313A05DE3C701B6010E94680F9B01AC01C50152
S11313B0B4010E94280C60934A0270934B028093FC
S11313C04C0290934D022C960FB6F894DEBF0FBEDC
S11313D0CDBFDF91CF91FF90EF90DF90CF90BF9082
S11313E0AF909F908F907F906F905F904F900895F3
S11313F08091960290919702843691050CF0ADC0CD
S11314006091600270916102882777FD8095982F22
S11314100E94BE0D9B01AC0160917E0270917F021F
S113142080918002909181020E94280C60937E0238
S113143070937F02809380029093810260915E0298
S113144070915F02882777FD8095982F0E94BE0DCA
S11314509B01AC0160917A0270917B0280917C02C5
S113146090917D020E94280C60937A0270937B0213
S113147080937C0290937D0260915C0270915D0286
S1131480882777FD8095982F0E94BE0D9B01AC01A3
S1131490609176027091770280917802909179023E
S11314A00E94280C609376027093770280937802EE
S11314B09093790260915A0270915B02882777FDBC
S11314C08095982F0E94BE0D9B01AC016091720221
S11314D07091730280917402909175020E94280C9D
S11314E060937202709373028093740290937502F6
S11314F06091580270915902882777FD8095982F42
S11315000E94BE0D9B01AC0160916E0270916F024E
S113151080917002909171020E94280C60936E0277
S113152070936F02809370029093710260915602DF
S113153070915702882777FD8095982F0E94BE0DE1
S11315409B01AC0160916A0270916B0280916C0204
S113155090916D020E94280C8CC08436910509F08C
S113156090C061E172E08DE593E00E94ED1220E00D
S113157030E048EC52E460917E0270917F028091E9
S11315808002909181020E94F20C60937E0270931B
S11315907F02809380029093810220E030E048EC47
S11315A052E460917A0270917B0280917C02909166
S11315B07D020E94F20C60937A0270937B02809306
S11315C07C0290937D0220E030E048EC52E460918C
S11315D076027091770280917802909179020E944C
S11315E0F20C20E030E040E856E40E94270C6093BF
S11315F0760270937702809378029093790220E0C8
S113160030E048EC52E46091720270917302809170
S11316107402909175020E94F20C609372027093AE
S11316207302809374029093750220E030E048ECDA
S113163052E460916E0270916F02809170029091F9
S113164071020E94F20C60936E0270936F02809399
S113165070029093710220E030E048EC52E4609113
S11316606A0270916B0280916C0290916D020E94EB
S1131670F20C60936A0270936B0280936C029093F5
S11316806D020895EF92FF920F931F938091C2020F
S11316909091C302909385008093840046E5E42EE4
S11316A042E0F42E08E512E02AE532E04CE552E08F
S11316B06EE572E080E692E00E945F0380919602FC
S11316C090919702019690939702809396028536A3
S11316D0910534F41F910F91FF90EF900C94F80949
S11316E0813496409CF0F89463E272E08DE593E0D7
S11316F00E94ED128FE787BD88BD8093B30080936D
S1131700B4001F910F91FF90EF9008950E945E081E
S11317108091960290919702883E9340A1F480E0D4
S113172090E0A0E8BFE38093B8029093B902A0933D
S1131730BA02B093BB021092B4021092B502109296
S1131740B6021092B7021F910F91FF90EF900C9484
S1131750AC071F920F920FB60F9211240F900FBE79
S11317600F901F9018951F920F920FB60F9211248D
S11317700F900FBE0F901F9018951F920F920FB6E7
S11317800F9211240F900FBE0F901F901895809107
S1131790000190910101909395028093940290939B
S11317A0930280939202089560E080E490E00E94A6
S11317B041048FE787BD88BD8093B3008093B40054
S11317C08DE593E00E9484116DED70E08DE593E06A
S11317D00E94A9128DE593E00E942711892BD1F371
S11317E08DE593E00C945B1182E49BE09093BD0241
S11317F08093BC0226E040E052EC61E070E08DE5AD
S113180093E00E949B108DE593E00E9484116DEC9F
S113181070E08DE593E00E94A9120E942B030E94C0
S11318201D03882319F066EC70E002C06EEB70E0D3
S11318308DE593E00E94A9120E94D40B6AE077ED33
S113184083E29CE30C9457050E94F40BFFCF50589D
S1131850BB27AA270ED02DC21ED230F023D220F0EF
S113186031F49F3F11F41EF4EEC10EF4E095E7FB52
S1131870E4C1E92F2FD280F3BA17620773078407F4
S1131880950718F071F49EF547C20EF4E0950B2EFF
S1131890BA2FA02D0B01B90190010C01CA01A001BE
S11318A01124FF27591B99F0593F50F4503E68F119
S11318B01A16F040A22F232F342F4427585FF3CF5A
S11318C0469537952795A795F0405395C9F77EF42B
S11318D01F16BA0B620B730B840BBAF09150A1F074
S11318E0FF0FBB1F661F771F881FC2F70EC0BA0FFA
S11318F0621F731F841F48F4879577956795B79582
S1131900F7959E3F08F0B3CF9395880F08F0992779
S1131910EE0F979587950895BED158F080E891E031
S113192009F49EEFBFD128F040E851E059F45EEF8E
S113193009C089C1F1C1E92FE078CCD168F3092E3F
S1131940052AC1F3261737074807590738F00E2E22
S113195007F8E02569F0E025E0640AC0EF6307F8C2
S1131960009407FADB01B9019D01DC01CA01AD0154
S1131970EF9347D09ED10AD05F91552331F02BEDE0
S11319803FE049E450FD49EC63CF0895DF93DD2740
S1131990B92FBF7740E85FE31616170648075B07C1
S11319A010F4D92F25D29F938F937F936F9335D3C0
S11319B0E8E6F0E04BD17DD12F913F914F915F91BB
S11319C093D2DD2349F09058A2EA2AED3FE049EC96
S11319D05FE3D0785D274DDFDF916BC10AD108F456
S11319E081E008950CD065C15DD140F054D130F050
S11319F021F45F3F19F021C151118FC124C16AD173
S1131A0098F39923C9F35523B1F3951B550BBB27C1
S1131A10AA2762177307840738F09F5F5F4F220F6E
S1131A20331F441FAA1FA9F333D00E2E3AF0E0E867
S1131A3030D091505040E695001CCAF729D0FE2FB3
S1131A4027D0660F771F881FBB1F26173707480745
S1131A50AB07B0E809F0BB0B802DBF01FF279358FB
S1131A605F4F2AF09E3F510568F0E7C056C15F3FC3
S1131A70ECF3983EDCF3869577956795B795F795E3
S1131A809F5FC9F7880F911D9695879597F90895DB
S1131A90E1E0660F771F881FBB1F62177307840777
S1131AA0BA0720F0621B730B840BBA0BEE1F88F786
S1131AB0E095089519F40EF0C0C02EC1C4C012D12F
S1131AC0C8F39638C0F707F80F92E8942BE33AEA84
S1131AD048EB5FE70BD20F920F920F924DB75EB7B0
S1131AE00F92C3D1E5E9F0E0B1D04F915F91EF914E
S1131AF0FF91E595EE1FFF1F49F0FE57E06844276C
S1131B00EE0F441FFA95E1F74195550B7AD10F90EA
S1131B1007FE6EC1089504D06894B111FEC0089503
S1131B20E1D088F09F5790F0B92F9927B751A0F0D2
S1131B30D1F0660F771F881F991F1AF0BA95C9F75D
S1131B4012C0B13081F0E8D0B1E00895E5C0672F4C
S1131B50782F8827B85F39F0B93FCCF3869577950D
S1131B606795B395D9F73EF49095809570956195F6
S1131B707F4F8F4F9F4F0895E89409C097FB3EF421
S1131B8090958095709561957F4F8F4F9F4F9923C6
S1131B90A9F0F92F96E9BB279395F6958795779544
S1131BA06795B795F111F8CFFAF4BB0F11F460FF04
S1131BB01BC06F5F7F4F8F4F9F4F16C0882311F05C
S1131BC096E911C0772321F09EE8872F762F05C070
S1131BD0662371F096E8862F70E060E02AF09A950B
S1131BE0660F771F881FDAF7880F9695879597F900
S1131BF00895990F0008550FAA0BE0E8FEEF16169A
S1131C001706E807F907C0F012161306E407F507EC
S1131C1098F0621B730B840B950B39F40A2661F060
S1131C20232B242B252B21F408950A2609F4A14003
S1131C30A6958FEF811D811D089597F99F6780E810
S1131C4070E060E008959FEF80EC0895DF93CF93F8
S1131C501F930F93FF92EF92DF927B018C016894A4
S1131C6005C0DA2EEF0140D1FE01E894A59125913B
S1131C70359145915591AEF3EF01FBDDFE019701DE
S1131C80A801DA9479F7DF90EF90FF900F911F91FC
S1131C90CF91DF91089500240A94161617061806AA
S1131CA00906089500240A9412161306140605065C
S1131CB00895092E0394000C11F4882352F0BB0FED
S1131CC040F4BF2B11F460FF04C06F5F7F4F8F4F50
S1131CD09F4F089557FD9058440F551F59F05F3F8B
S1131CE071F04795880F97FB991F61F09F3F79F03A
S1131CF087950895121613061406551FF2CF4695BC
S1131D00F1DF08C0161617061806991FF1CF86953D
S1131D107105610508940895E894BB276627772721
S1131D20CB0197F9089565DF08F48FEF0895B3DFC9
S1131D3019F0B8DF09F087CF80CFB901CA0170C1AB
S1131D409F775F77C7DF98F39923B9F35523B9F3E6
S1131D50FF27951758F4E52FE91BED3070F75E3B2C
S1131D6010F0F1E41CC09034E0F40AC0E92FE51B44
S1131D70ED3028F79E3B10F0F1E411C0503488F4A4
S1131D80F9EA88232AF09A95660F771F881FDAF7F5
S1131D9044232AF05A95220F331F441FDAF79F1B5E
S1131DA05F1BFF931F930F93FF92EF9279018A01B8
S1131DB0BB27AB2F9B01AC0199D09701A801BF931E
S1131DC07B018C01AA27BA2FB901CA018FD0AF9128
S1131DD09701A801EF90FF900F911F914ADD69DFF1
S1131DE0DED04F9140FF0895552747FD509509C017
S1131DF09B01AC0160E070E080E89FE3F3CD1DCF70
S1131E000FC170DFE8F39923D9F3940F511DBBF38D
S1131E109150504094F059F0882332F0660F771FA8
S1131E20881F91505040C1F79E3F510544F7880FD9
S1131E30911D9695879597F908955F3FACF0983E6C
S1131E409CF0BB27869577956795B79508F4B160A4
S1131E509395C1F7BB0F58F711F460FFE8CF6F5F9C
S1131E607F4F8F4F9F4FE3CF58CFFA01DC01AA0F6A
S1131E70BB1F9B01AC01BF5728F4222733274427FB
S1131E8050781FC0B75188F4AB2F0024469537957E
S1131E902795011CA395D2F3002069F0220F331F6C
S1131EA0441FB395DAF30DD0D2CC61307105A0E8AC
S1131EB08A07B94630F49B01AC0166277727882747
S1131EC09078309621F020833183428353830895A0
S1131ED00BD0EFCEE0DE28F0E5DE18F0952309F014
S1131EE0ACCEB1CE112419CFF5DEA0F3959FD1F37A
S1131EF0950F50E0551F629FF001729FBB27F00DB4
S1131F00B11D639FAA27F00DB11DAA1F649F662708
S1131F10B00DA11D661F829F2227B00DA11D621F57
S1131F20739FB00DA11D621F839FA00D611D221F11
S1131F30749F3327A00D611D231F849F600D211DF5
S1131F40822F762F6A2F11249F5750408AF0E1F098
S1131F5088234AF0EE0FFF1FBB1F661F771F881FE1
S1131F6091505040A9F79E3F510570F066CED5CEF2
S1131F705F3FECF3983EDCF3869577956795B795CC
S1131F80F795E7959F5FC1F7FE2B880F911D9695F6
S1131F90879597F9089511F40EF455CE41C0A2DE49
S1131FA0D0F39923D9F3CEF39F57550B87FF46D02F
S1131FB00024A0E640EA900180585695979528F4AD
S1131FC0805C660F771F881F20F0261737074807A5
S1131FD030F4621B730B840B202931294A2BA695FC
S1131FE017940794202531254A2758F7660F771F41
S1131FF0881F20F026173707480730F4620B730B4D
S1132000840B200D311D411DA09581F7B901842F4A
S11320109158880F9695879508959B01AC0158CFE8
S11320209F3F31F0915020F4879577956795B79548
S1132030880F911D9695879597F908959150504072
S1132040660F771F881FD2F708951F920F920FB65D
S11320500F9211242F933F934F938F939F93EF935A
S1132060FF938091C00082FD1DC04091C600209165
S11320701503309116032F5F3F4F2F7330708091FB
S11320801703909118032817390771F0E09115038D
S1132090F0911603EB52FD4F4083309316032093C7
S11320A0150302C08091C600FF91EF919F918F911B
S11320B04F913F912F910F900FBE0F901F90189545
S11320C01F920F920FB60F9211242F933F938F9369
S11320D09F93EF93FF932091590330915A0380917A
S11320E05B0390915C032817390731F48091C10098
S11320F08F7D8093C10014C0E0915B03F0915C0379
S1132100E75EFC4F208180915B0390915C03019614
S11321108F73907090935C0380935B032093C6004D
S1132120FF91EF919F918F913F912F910F900FBE4F
S11321300F901F901895AF92BF92CF92DF92EF92BB
S1132140FF920F931F93CF93DF93EC017A018B01DE
S1132150C22EDD24403081EE580780E0680780E01D
S1132160780711F0DD24D39471E0A72EB12CEC890B
S1132170FD89DD2069F0C50108A002C0880F991F00
S11321800A94E2F7808360E079E08DE390E005C093
S1132190108260E874E88EE190E0A80197010E9443
S11321A06816215030404040504056954795379529
S11321B0279580E12030380720F0DD2011F0DD2460
S11321C0D6CFE889F9893083EA89FB892083E88DB1
S11321D0F98DC082EE89FF89408121E030E0C90198
S11321E00C8C02C0880F991F0A94E2F7482B408395
S11321F0EE89FF894081C9010D8C02C0880F991FA7
S11322000A94E2F7482B4083EE89FF894081C90193
S11322100E8C02C0880F991F0A94E2F7482B408362
S1132220EE89FF8980810F8C02C0220F331F0A942C
S1132230E2F7209528232083DF91CF911F910F91FE
S1132240FF90EF90DF90CF90BF90AF900895DC01A6
S11322501C96ED91FC911D97E05CFF4F819191914B
S113226020813181805C9F4F821B930B60E470E07E
S11322700E9454160895DC011C96ED91FC911D9763
S1132280E05CFF4F20813181E054F040DF01AE5B20
S1132290BF4F8D919C9111972817390719F42FEF8F
S11322A03FEF07C08D919C91E80FF91F8081282F83
S11322B030E0C9010895DC011C96ED91FC911D9755
S11322C0E05CFF4F20813181E054F040DF01AE5BE0
S11322D0BF4F8D919C9111972817390719F42FEF4F
S11322E03FEF10C08D919C911197E80FF91F208149
S11322F08D919C91119701968F73907011969C9378
S11323008E9330E0C9010895DC0191968C919197E8
S1132310882339F05496ED91FC915597808186FF7E
S1132320F9CF91961C920895CF93DF93EC01EE853B
S1132330FF85E05CFF4F20813181E054F0402F5F46
S11323403F4F2F733070DF01AE5BBF4F8D919C9177
S1132350119728173907D1F3E05CFF4F80819181F1
S1132360E054F040E80FF91F6083EE85FF85E05CE0
S1132370FF4F31832083EE89FF89208181E090E043
S11323800F8C02C0880F991F0A94E2F7282B208330
S113239081E089A3EC89FD8980818064808381E068
S11323A090E0DF91CF9108951092600310925F0343
S11323B088EE93E0A0E0B0E0809361039093620321
S11323C0A0936303B09364038AE392E090935E0363
S11323D080935D0385ED92E090936A038093690393
S11323E089E193E090936C0380936B0385EC90E018
S11323F090936E0380936D0384EC90E0909370034C
S113240080936F0380EC90E0909372038093710348
S113241081EC90E0909374038093730382EC90E0DA
S1132420909376038093750386EC90E09093780301
S11324308093770384E08093790383E080937A0325
S113244087E080937B0385E080937C0381E0809325
S11324507D030895CF92DF92EF92FF920F931F9323
S1132460CF93DF937C016B018A01C0E0D0E00FC001
S1132470D6016D916D01D701ED91FC910190F08130
S1132480E02DC7010995C80FD91F0150104001154F
S1132490110571F7CE01DF91CF911F910F91FF903C
S11324A0EF90DF90CF900895EF92FF920F931F93D8
S11324B0CF93DF937C018B01C0E0D0E0F8010F5F84
S11324C01F4F6491662359F0D701ED91FC9101905F
S11324D0F081E02DC7010995C80FD91FEFCFCE01B8
S11324E0DF91CF911F910F91FF90EF900895CF93BB
S11324F0DF93FB01EC01A881B98160817181448182
S113250055811296ED91FC9113970995DF91CF9126
S11325100895EF92FF920F931F938C01DC01ED91CC
S1132520FC910190F081E02D6DE009957C01D801CA
S1132530ED91FC910190F081E02DC8016AE00995CC
S11325409C012E0D3F1DC9011F910F91FF90EF902B
S11325500895EF92FF920F931F937C010E945412EF
S11325608C01C7010E9489129C01200F311FC901EF
S11325701F910F91FF90EF900895EF92FF920F93A8
S11325801F937C010E9477128C01C7010E9489125B
S11325909C01200F311FC9011F910F91FF90EF90F3
S11325A00895CF93DF93EC016115710519F420E0D0
S11325B030E00FC0DB010D900020E9F71197A61B56
S11325C0B70BE881F9810280F381E02DAD01099513
S11325D09C01C901DF91CF910895EF92FF920F936F
S11325E01F937C010E94D1128C01C7010E948912A1
S11325F0080F191FC8011F910F91FF90EF900895C4
S11326000F931F93CF93DF93EC018B016F5F7F4F89
S1132610888199810E947315009711F480E005C0A8
S1132620998388831B830A8381E0DF91CF911F9173
S11326300F910895CF93DF93EC0188819981892BC1
S113264029F08A819B818617970760F4CE010E9446
S11326500013882341F08C819D81892B19F4E88132
S1132660F981108281E0DF91CF910895EF92FF927A
S11326700F931F93CF93DF93EC017B016C817D81DA
S1132680E114F104C1F04115510599F08A01060FD6
S1132690171FB8010E941A13882369F08881998151
S11326A02C813D81820F931FB7010E94ED161D837B
S11326B00C8381E001C080E0DF91CF911F910F91E5
S11326C0FF90EF900895CF93DF93EC018881998177
S11326D0009711F00E94DB14198218821D821C825B
S11326E01B821A82DF91CF9108950F931F93182FA5
S11326F0092F6115710561F0DB010D900020E9F7E8
S11327001197A61BB70BAD010E943613882321F441
S1132710812F902F0E946313812F902F1F910F916F
S113272008950F931F93182F092FFB016081718166
S1132730448155810E943613882321F4812F902FE0
S11327400E946313812F902F1F910F910895EF9290
S1132750FF920F931F93CF93DF93EC017B018A01C8
S1132760BA010E941A13882321F4CE010E94631334
S113277007C01D830C8388819981B7010E94ED16DF
S1132780CE01DF91CF911F910F91FF90EF900895AB
S11327900F931F93182F092F6115710559F0DB0151
S11327A00D900020E9F71197A61BB70BAD010E940D
S11327B0A71302C00E946313812F902F1F910F91C2
S11327C00895EF92FF920F931F93DF93CF93CDB7AA
S11327D0DEB7A1970FB6F894DEBF0FBECDBF7C0164
S11327E0CB01BA01F7011182108213821282158281
S11327F01482422F4E5F8E010F5F1F4F0E94C3163B
S1132800BC01C7010E94C813A1960FB6F894DEBF9D
S11328100FBECDBFCF91DF911F910F91FF90EF902D
S11328200895CF93DF93EC01FB018617970761F0BE
S1132830608171816115710529F0448155810E947F
S1132840A71302C00E946313CE01DF91CF910895B4
S1132850FC011182108213821282158214820E945A
S113286011140895FC01808191810E94DB14089564
S1132870FC01808191810E94DB1408950F931F93C2
S1132880CF93DF93BC018230910510F462E070E0D5
S1132890E0918F03F091900340E050E0A0E0B0E0BD
S11328A024C08081918186179707D0F086179707F7
S11328B071F482819381109729F013969C938E93DF
S11328C012972CC09093900380938F0327C04115D7
S11328D0510519F08417950718F48D01AC01EF0127
S11328E0DF01828193819C01F9013097D1F6411572
S11328F05105F9F0CA01861B970B8430910580F4C9
S11329008A819B810115110521F0F801938382834B
S113291004C09093900380938F03FE01329645C0C8
S1132920FE01E80FF91F61937193029799838883DD
S11329303CC080918D0390918E03892B41F480914A
S113294004019091050190938E0380938D0340912F
S11329500601509107014115510541F44DB75EB789
S11329608091020190910301481B590B20918D0322
S113297030918E0324173507B0F4CA01821B930BE0
S11329808617970780F0AB014E5F5F4F841795075A
S113299050F0420F531F50938E0340938D03F9015F
S11329A06193719302C0E0E0F0E0CF01DF91CF9139
S11329B01F910F910895CF93DF939C01009709F421
S11329C08FC0EC0122971B821A8260918F03709151
S11329D090036115710581F488819981820F931F99
S11329E020918D0330918E032817390739F5D09340
S11329F08E03C0938D0374C0DB0140E050E0AC173C
S1132A00BD0708F1BB83AA83FE0121913191E20F36
S1132A10F31FAE17BF0779F48D919C911197280F7E
S1132A20391F2E5F3F4F3983288312968D919C91D5
S1132A3013979B838A834115510571F4D0939003B6
S1132A40C0938F034DC012968D919C911397AD0145
S1132A50009711F0DC01D3CFDA011396DC93CE9307
S1132A601297FA0121913191E20FF31FCE17DF077C
S1132A7069F488819981280F391F2E5F3F4FFA012D
S1132A80318320838A819B8193838283E0E0F0E019
S1132A90DB0112968D919C911397009719F0BC015C
S1132AA0FD01F6CFAB014E5F5F4FDB018D919C9131
S1132AB0840F951F20918D0330918E0328173907B9
S1132AC079F4309729F41092900310928F0302C086
S1132AD0138212824250504050938E0340938D03D0
S1132AE0DF91CF9108956F927F928F929F92AF92D0
S1132AF0BF92CF92DF92EF92FF920F931F93CF93E7
S1132B00DF938C01009729F4CB010E943E148C01C1
S1132B10BBC08EEFE82E8FEFF82EE00EF11E4801B9
S1132B20860E971E8E149F0408F4ACC0D7014D91F5
S1132B305C91119746175707B8F04530510508F4D2
S1132B40A3C0CA0104978617970708F49DC0425092
S1132B505040461B570BF401419351936D937C9362
S1132B60CF010E94DB1490C05B01A41AB50A38019E
S1132B70640E751EA0918F03B0919003E0E0F0E025
S1132B80CC24DD2447C0A615B705A9F5CD91DC9169
S1132B901197CE0102968A159B0568F1CE018A1918
S1132BA09B09029612962C91129713963C910597C5
S1132BB058F0F40122833383CA19DB09D183C0831B
S1132BC0D7016D937C9309C04E5F5F4F4C0F5D1F1F
S1132BD0F70151834083C901FC01C114D10431F0D0
S1132BE0D6011396FC93EE9312974EC0F093900384
S1132BF0E0938F0349C08D919C911197E817F907D1
S1132C0008F4FC016D0112968C91129713969C9115
S1132C109C01D901109709F0B6CF80918D03909152
S1132C208E0386159705E9F4E617F707D0F420918B
S1132C300601309107012115310541F42DB73EB746
S1132C408091020190910301281B390B821693068F
S1132C50C8F490928E0380928D03F7017183608390
S1132C6013C0CB010E943E14EC01009759F0D70128
S1132C704D915C91B8010E94E416C8010E94DB14D6
S1132C808E0102C000E010E0C801DF91CF911F91D6
S1132C900F91FF90EF90DF90CF90BF90AF909F90F7
S1132CA08F907F906F90089597FB072E16F40094F1
S1132CB007D077FD09D00E94A91607FC05D03EF481
S1132CC0909581959F4F0895709561957F4F0895D4
S1132CD0A1E21A2EAA1BBB1BFD010DC0AA1FBB1F1C
S1132CE0EE1FFF1FA217B307E407F50720F0A21B8E
S1132CF0B30BE40BF50B661F771F881F991F1A94FB
S1132D0069F760957095809590959B01AC01BD0124
S1132D10CF010895052E97FB1EF400940E94A1167E
S1132D2057FD07D00E94681607FC03D04EF40C949C
S1132D30A11650954095309521953F4F4F4F5F4FC9
S1132D40089590958095709561957F4F8F4F9F4F13
S1132D500895AA1BBB1B51E107C0AA1FBB1FA617DE
S1132D60B70710F0A61BB70B881F991F5A95A9F730
S1132D7080959095BC01CD010895EE0FFF1F05903D
S1132D80F491E02D0994EF920F931F93CF93DF9367
S1132D90E80147FF02C034E101C034E0E42FFF271B
S1132DA0E7FDF095F7FF03C0F195E195F109E32EF6
S1132DB0022F2E2FAE010E94F416CE01DF91CF9187
S1132DC01F910F91EF900895FB01DC0102C0019067
S1132DD00D9241505040D8F70895FB01DC01019059
S1132DE00D920020E1F708956F927F929F92AF9227
S1132DF0BF92CF92DF92EF92FF920F931F93CF93E4
S1132E00DF93CDB7DEB729970FB6F894DEBF0FBEB8
S1132E10CDBF6A01B22E102F0C3320F4FF24F3949B
S1132E20F00E02C04CE3F42E0F2D27E0AE014F5FED
S1132E305F4F0E9472187981272F2970213031F059
S1132E40E1FC06C0E0FC06C060E005C06DE203C022
S1132E506BE201C060E2AE2DA07173FF36C0662341
S1132E6011F084E001C083E08B1510F4B81A01C09E
S1132E70B12CA1110BC0F6018B2D90E2882319F01F
S1132E8091938150FBCFCB0CD11CB12C662331F034
S1132E90F601608396012F5F3F4F6901C6010396D7
S1132EA0E2FE05C02EE4F601208331E404C02EE6E0
S1132EB0F601208331E631832283FC012B2D30E29D
S1132EC02223F1F131932150FBCF72FF40C06623DE
S1132ED011F084E001C083E08B1510F4B81A01C02E
S1132EE0B12CA1110BC0F6018B2D90E2882319F0AF
S1132EF091938150FBCFCB0CD11CB12C662331F0C4
S1132F00F601608396012F5F3F4F6901C601039666
S1132F10E2FE07C029E4F60120832EE4218326E49F
S1132F2006C029E6F60120832EE6218326E62283C5
S1132F30FC012B2D30E2222319F031932150FBCFD9
S1132F40FC01EB0DF11D10828EEF9FEFB7C0B1E0D5
S1132F50611101C0B0E04B2F50E01816190624F49B
S1132F609C012F5F3F4F02C021E030E0240F351F4A
S1132F70112329F0412F50E04F5F5F4F02C040E022
S1132F8050E0420F531F2B2D30E04217530714F427
S1132F90B41A01C0B12C2E2D287159F4F6012B2D31
S1132FA030E2222319F031932150FBCFCB0CD11CFA
S1132FB0B12CBB2331F0F601608396012F5F3F4FA4
S1132FC06901A1110BC0F6012B2D30E3222319F066
S1132FD031932150FBCFCB0CD11CB12CF80E0A81BC
S1132FE0372F3071A32E74FF03C0013309F4FA9410
S1132FF01F142CF42F2D293018F028E001C021E0F3
S1133000682F392F97FF02C060E030E0462F532F1E
S1133010612C712C3EE2932EBC01621B71099B0151
S1133020DC01A41BB50BE1E0F0E0EC0FFD1FAE0FDB
S1133030BF1FE12EF12CF194E194F1084F3FFFEF13
S11330405F0731F4F6019082B6016F5F7F4F6B0129
S1133050841795074CF02417350734F4BD01660D29
S1133060771DFB01118101C010E341505109FFEFAD
S11330706F1A7F0AB6016F5F7F4F4E155F0524F00C
S1133080F60110836B01DACF4817590739F4063378
S113309020F4053319F4A11001C011E3F6011083E3
S11330A0FB018B2D90E2882319F091938150FBCF83
S11330B0FB01EB0DF11D108280E090E029960FB624
S11330C0F894DEBF0FBECDBFDF91CF911F910F915A
S11330D0FF90EF90DF90CF90BF90AF909F907F9044
S11330E06F900895283008F027E03327DA01990F0C
S11330F0311D87FD916000966105710539F43260D8
S11331002E5F3D9330E32A95E1F708959F3F30F019
S113311080387105610509F03C5F3C5F3D93913057
S113312008F08068911DDF93CF931F930F93FF9254
S1133130EF92192F987F9695E92F96959695E90F1A
S1133140FF27E359FE4F99273327EE24FF24A701D5
S1133150E70105900894079428F4360FE71EF81E3B
S1133160491F511D660F771F881F991F0694A1F7E9
S11331700590079428F4E70EF81E491F561FC11D39
S1133180770F881F991F661F0694A1F7059007946F
S113319028F4F80E491F561FC71FD11D880F991F09
S11331A0661F771F0694A1F70590079420F4490F32
S11331B0561FC71FD81F990F661F771F881F0694B5
S11331C0A9F784911095177041F0D695C795579536
S11331D04795F794E7941A95C1F7E3E1F1E0689411
S11331E01590159135916591959105907FE27395B0
S11331F0E118F10A430B560BC90BD009C0F7E10CD7
S1133200F11E431F561FC91FD01D7EF4703311F4E5
S11332108A95E6CFE894015030F0080F0AF40027AD
S1133220021708F4202F2395022F7A3328F079E32C
S11332307D932A95E9F710C07D932A9589F6069423
S113324097956795379517951794E118F10A430BED
S1133250560BC90BD00998F023957E9173957A3358
S113326008F070E37C932013B8F77E9170617D932E
S113327030F0839571E37D9370E32A95E1F711248F
S1133280EF90FF900F911F91CF91DF91992787FDC8
S10B329090950895F894FFCF16
S1133298BE00800091030000252D2D2D496E746514
S11332A87272757074696F6E2063616C63756C619A
S11332B87465642D2D2D0025636F756E74496E74C5
S11332C8657276616C3A2000257072657365743A8C
S11332D82000206F72203078002573656C65637454
S11332E865645072657363616C65723A2000256683
S11332F872657175656E63793A200020487A0025F5
S1133308706572696F643A2000206D7300256D61E1
S113331878506572696F645769746850726573632D
S1133328616C65723A2000252D2D2D494E54455265
S113333852555054494F4E204E4F5420434F4E46F9
S1133348494755524544212D2D2D002554686520A3
S1133358706572696F6420796F7520617265207475
S11333687279696E6720746F20736574206973209D
S113337870726F6261626C7920746F6F20736D6113
S11333886C6C206F7220746F6F206269672E002541
S1133398436865636B20796F757220636F64652E6B
S11333A8007A6572616E646F2073656E736F722E36
S11333B82E2E0046696D20646F2070726F677261EB
S11333C86D612E2E2E000000000094112A12271180
S10933D85B113B1184119E
S9030000FC
